{
  "contractName": "Dropbox",
  "abi": [
    {
      "inputs": [],
      "stateMutability": "nonpayable",
      "type": "constructor"
    },
    {
      "anonymous": false,
      "inputs": [
        {
          "indexed": false,
          "internalType": "uint256",
          "name": "fileId",
          "type": "uint256"
        },
        {
          "indexed": false,
          "internalType": "string",
          "name": "fileHash",
          "type": "string"
        },
        {
          "indexed": false,
          "internalType": "uint256",
          "name": "fileSize",
          "type": "uint256"
        },
        {
          "indexed": false,
          "internalType": "string",
          "name": "fileType",
          "type": "string"
        },
        {
          "indexed": false,
          "internalType": "string",
          "name": "fileName",
          "type": "string"
        },
        {
          "indexed": false,
          "internalType": "string",
          "name": "fileDescription",
          "type": "string"
        },
        {
          "indexed": false,
          "internalType": "uint256",
          "name": "uploadTime",
          "type": "uint256"
        },
        {
          "indexed": false,
          "internalType": "address payable",
          "name": "uploader",
          "type": "address"
        }
      ],
      "name": "UploadFile",
      "type": "event"
    },
    {
      "inputs": [],
      "name": "fileCount",
      "outputs": [
        {
          "internalType": "uint256",
          "name": "",
          "type": "uint256"
        }
      ],
      "stateMutability": "view",
      "type": "function",
      "constant": true
    },
    {
      "inputs": [
        {
          "internalType": "uint256",
          "name": "",
          "type": "uint256"
        }
      ],
      "name": "files",
      "outputs": [
        {
          "internalType": "uint256",
          "name": "fileId",
          "type": "uint256"
        },
        {
          "internalType": "string",
          "name": "fileHash",
          "type": "string"
        },
        {
          "internalType": "uint256",
          "name": "fileSize",
          "type": "uint256"
        },
        {
          "internalType": "string",
          "name": "fileType",
          "type": "string"
        },
        {
          "internalType": "string",
          "name": "fileName",
          "type": "string"
        },
        {
          "internalType": "string",
          "name": "fileDescription",
          "type": "string"
        },
        {
          "internalType": "uint256",
          "name": "uploadTime",
          "type": "uint256"
        },
        {
          "internalType": "address payable",
          "name": "uploader",
          "type": "address"
        }
      ],
      "stateMutability": "view",
      "type": "function",
      "constant": true
    },
    {
      "inputs": [],
      "name": "name",
      "outputs": [
        {
          "internalType": "string",
          "name": "",
          "type": "string"
        }
      ],
      "stateMutability": "view",
      "type": "function",
      "constant": true
    },
    {
      "inputs": [],
      "name": "owner",
      "outputs": [
        {
          "internalType": "address",
          "name": "",
          "type": "address"
        }
      ],
      "stateMutability": "view",
      "type": "function",
      "constant": true
    },
    {
      "inputs": [
        {
          "internalType": "string",
          "name": "_fileHash",
          "type": "string"
        },
        {
          "internalType": "uint256",
          "name": "_fileSize",
          "type": "uint256"
        },
        {
          "internalType": "string",
          "name": "_fileType",
          "type": "string"
        },
        {
          "internalType": "string",
          "name": "_fileName",
          "type": "string"
        },
        {
          "internalType": "string",
          "name": "_fileDescription",
          "type": "string"
        }
      ],
      "name": "uploadFile",
      "outputs": [],
      "stateMutability": "nonpayable",
      "type": "function"
    }
  ],
  "bytecode": "0x60c06040526007608081905266088e4dee0c4def60cb1b60a0908152610028916001919061004d565b5034801561003557600080fd5b50600080546001600160a01b03191633179055610120565b828054610059906100e6565b90600052602060002090601f01602090048101928261007b57600085556100c1565b82601f1061009457805160ff19168380011785556100c1565b828001600101855582156100c1579182015b828111156100c15782518255916020019190600101906100a6565b506100cd9291506100d1565b5090565b5b808211156100cd57600081556001016100d2565b600181811c908216806100fa57607f821691505b60208210810361011a57634e487b7160e01b600052602260045260246000fd5b50919050565b610ab38061012f6000396000f3fe608060405234801561001057600080fd5b50600436106100575760003560e01c806306fdde031461005c578063439535191461007a5780638da5cb5b14610091578063e82d9d33146100bc578063f4c714b4146100d1575b600080fd5b6100646100f8565b604051610071919061080e565b60405180910390f35b61008360025481565b604051908152602001610071565b6000546100a4906001600160a01b031681565b6040516001600160a01b039091168152602001610071565b6100cf6100ca3660046108cb565b610186565b005b6100e46100df366004610982565b6104bd565b60405161007198979695949392919061099b565b6001805461010590610a1d565b80601f016020809104026020016040519081016040528092919081815260200182805461013190610a1d565b801561017e5780601f106101535761010080835404028352916020019161017e565b820191906000526020600020905b81548152906001019060200180831161016157829003601f168201915b505050505081565b60018551116101dc5760405162461bcd60e51b815260206004820152601a60248201527f53686f756c642068617665206120636f7272656374206861736800000000000060448201526064015b60405180910390fd5b60018351116102265760405162461bcd60e51b815260206004820152601660248201527553686f756c642068617665207365742061207479706560501b60448201526064016101d3565b60018251116102705760405162461bcd60e51b815260206004820152601660248201527553686f756c642068617665207365742061206e616d6560501b60448201526064016101d3565b60018151116102c15760405162461bcd60e51b815260206004820152601d60248201527f53686f756c642068617665207365742061206465736372697074696f6e00000060448201526064016101d3565b3361030e5760405162461bcd60e51b815260206004820152601b60248201527f53686f756c64206861766520612076616c69642061646472657373000000000060448201526064016101d3565b6000841161035e5760405162461bcd60e51b815260206004820152601b60248201527f53686f756c64206861766520612066696c652073697a65203e2030000000000060448201526064016101d3565b6001600260008282546103719190610a57565b909155505060408051610100810182526002548082526020808301898152838501899052606084018890526080840187905260a084018690524260c08501523360e08501526000928352600382529390912082518155925180519293926103de9260018501920190610728565b506040820151600282015560608201518051610404916003840191602090910190610728565b5060808201518051610420916004840191602090910190610728565b5060a0820151805161043c916005840191602090910190610728565b5060c0820151600682015560e090910151600790910180546001600160a01b0319166001600160a01b039092169190911790556002546040517fccd294fa6415f3b3f94ac01881547f947b8fbb5e84ee31efd973f6c1cb510e9e916104ae91889088908890889088904290339061099b565b60405180910390a15050505050565b600360205260009081526040902080546001820180549192916104df90610a1d565b80601f016020809104026020016040519081016040528092919081815260200182805461050b90610a1d565b80156105585780601f1061052d57610100808354040283529160200191610558565b820191906000526020600020905b81548152906001019060200180831161053b57829003601f168201915b50505050509080600201549080600301805461057390610a1d565b80601f016020809104026020016040519081016040528092919081815260200182805461059f90610a1d565b80156105ec5780601f106105c1576101008083540402835291602001916105ec565b820191906000526020600020905b8154815290600101906020018083116105cf57829003601f168201915b50505050509080600401805461060190610a1d565b80601f016020809104026020016040519081016040528092919081815260200182805461062d90610a1d565b801561067a5780601f1061064f5761010080835404028352916020019161067a565b820191906000526020600020905b81548152906001019060200180831161065d57829003601f168201915b50505050509080600501805461068f90610a1d565b80601f01602080910402602001604051908101604052809291908181526020018280546106bb90610a1d565b80156107085780601f106106dd57610100808354040283529160200191610708565b820191906000526020600020905b8154815290600101906020018083116106eb57829003601f168201915b5050505060068301546007909301549192916001600160a01b0316905088565b82805461073490610a1d565b90600052602060002090601f016020900481019282610756576000855561079c565b82601f1061076f57805160ff191683800117855561079c565b8280016001018555821561079c579182015b8281111561079c578251825591602001919060010190610781565b506107a89291506107ac565b5090565b5b808211156107a857600081556001016107ad565b6000815180845260005b818110156107e7576020818501810151868301820152016107cb565b818111156107f9576000602083870101525b50601f01601f19169290920160200192915050565b60208152600061082160208301846107c1565b9392505050565b634e487b7160e01b600052604160045260246000fd5b600082601f83011261084f57600080fd5b813567ffffffffffffffff8082111561086a5761086a610828565b604051601f8301601f19908116603f0116810190828211818310171561089257610892610828565b816040528381528660208588010111156108ab57600080fd5b836020870160208301376000602085830101528094505050505092915050565b600080600080600060a086880312156108e357600080fd5b853567ffffffffffffffff808211156108fb57600080fd5b61090789838a0161083e565b965060208801359550604088013591508082111561092457600080fd5b61093089838a0161083e565b9450606088013591508082111561094657600080fd5b61095289838a0161083e565b9350608088013591508082111561096857600080fd5b506109758882890161083e565b9150509295509295909350565b60006020828403121561099457600080fd5b5035919050565b60006101008a83528060208401526109b58184018b6107c1565b905088604084015282810360608401526109cf81896107c1565b905082810360808401526109e381886107c1565b905082810360a08401526109f781876107c1565b60c084019590955250506001600160a01b039190911660e0909101529695505050505050565b600181811c90821680610a3157607f821691505b602082108103610a5157634e487b7160e01b600052602260045260246000fd5b50919050565b60008219821115610a7857634e487b7160e01b600052601160045260246000fd5b50019056fea2646970667358221220a0173bcffb529cfc9a328e956d74a32290c8404c011ab49926ae4caf99e77f3f64736f6c634300080d0033",
  "immutableReferences": {},
  "source": "// SPDX-License-Identifier: MIT\npragma solidity >=0.4.22 <0.9.0;\n\ncontract Dropbox {\n  address public owner;\n  string public name = \"Dropbox\";\n  uint public fileCount;\n\n  struct File {\n    uint fileId;\n    string fileHash;\n    uint fileSize;\n    string fileType;\n    string fileName;\n    string fileDescription;\n    uint uploadTime;\n    address payable uploader;\n  }\n\n  mapping(uint => File) public files;\n\n  event UploadFile(\n    uint fileId,\n    string fileHash,\n    uint fileSize,\n    string fileType,\n    string fileName,\n    string fileDescription,\n    uint uploadTime,\n    address payable uploader\n  );\n\n  constructor() {\n    owner = msg.sender;\n  }\n\n  function uploadFile(\n    string memory _fileHash,\n    uint _fileSize,\n    string memory _fileType,\n    string memory _fileName,\n    string memory _fileDescription) public {\n    \n    require(bytes(_fileHash).length > 1, 'Should have a correct hash');  \n    require(bytes(_fileType).length > 1, 'Should have set a type');  \n    require(bytes(_fileName).length > 1, 'Should have set a name');  \n    require(bytes(_fileDescription).length > 1, 'Should have set a description');\n    require(msg.sender != address(0), \"Should have a valid address\");  \n    require(_fileSize > 0, \"Should have a file size > 0\");\n\n    fileCount += 1;\n    \n    files[fileCount] = File(\n      fileCount,\n      _fileHash,\n      _fileSize,\n      _fileType,\n      _fileName,\n      _fileDescription,\n      block.timestamp,\n      payable(msg.sender)\n    );\n  \n    emit UploadFile(\n      fileCount,\n      _fileHash,\n      _fileSize,\n      _fileType,\n      _fileName,\n      _fileDescription,\n      block.timestamp,\n      payable(msg.sender)\n    );\n\n  }\n}\n",
  "sourcePath": "/Users/danielancuta/Development/blockchain/truffle-react-dropbox-app/src/contracts/Dropbox.sol",
  "compiler": {
    "name": "solc",
    "version": "0.8.13+commit.abaa5c0e.Emscripten.clang"
  },
  "schemaVersion": "3.4.10",
  "updatedAt": "2022-09-29T10:00:27.609Z",
  "networkType": "ethereum",
  "devdoc": {
    "kind": "dev",
    "methods": {},
    "version": 1
  },
  "userdoc": {
    "kind": "user",
    "methods": {},
    "version": 1
  }
}