{
  "contractName": "Dropbox",
  "abi": [
    {
      "inputs": [],
      "stateMutability": "nonpayable",
      "type": "constructor"
    },
    {
      "anonymous": false,
      "inputs": [
        {
          "indexed": false,
          "internalType": "uint256",
          "name": "fileId",
          "type": "uint256"
        },
        {
          "indexed": false,
          "internalType": "string",
          "name": "fileHash",
          "type": "string"
        },
        {
          "indexed": false,
          "internalType": "uint256",
          "name": "fileSize",
          "type": "uint256"
        },
        {
          "indexed": false,
          "internalType": "string",
          "name": "fileType",
          "type": "string"
        },
        {
          "indexed": false,
          "internalType": "string",
          "name": "fileName",
          "type": "string"
        },
        {
          "indexed": false,
          "internalType": "string",
          "name": "fileDescription",
          "type": "string"
        },
        {
          "indexed": false,
          "internalType": "uint256",
          "name": "uploadTime",
          "type": "uint256"
        },
        {
          "indexed": false,
          "internalType": "address payable",
          "name": "uploader",
          "type": "address"
        }
      ],
      "name": "UploadFile",
      "type": "event"
    },
    {
      "inputs": [],
      "name": "fileCount",
      "outputs": [
        {
          "internalType": "uint256",
          "name": "",
          "type": "uint256"
        }
      ],
      "stateMutability": "view",
      "type": "function",
      "constant": true
    },
    {
      "inputs": [
        {
          "internalType": "uint256",
          "name": "",
          "type": "uint256"
        }
      ],
      "name": "files",
      "outputs": [
        {
          "internalType": "uint256",
          "name": "fileId",
          "type": "uint256"
        },
        {
          "internalType": "string",
          "name": "fileHash",
          "type": "string"
        },
        {
          "internalType": "uint256",
          "name": "fileSize",
          "type": "uint256"
        },
        {
          "internalType": "string",
          "name": "fileType",
          "type": "string"
        },
        {
          "internalType": "string",
          "name": "fileName",
          "type": "string"
        },
        {
          "internalType": "string",
          "name": "fileDescription",
          "type": "string"
        },
        {
          "internalType": "uint256",
          "name": "uploadTime",
          "type": "uint256"
        },
        {
          "internalType": "address payable",
          "name": "uploader",
          "type": "address"
        }
      ],
      "stateMutability": "view",
      "type": "function",
      "constant": true
    },
    {
      "inputs": [],
      "name": "name",
      "outputs": [
        {
          "internalType": "string",
          "name": "",
          "type": "string"
        }
      ],
      "stateMutability": "view",
      "type": "function",
      "constant": true
    },
    {
      "inputs": [],
      "name": "owner",
      "outputs": [
        {
          "internalType": "address",
          "name": "",
          "type": "address"
        }
      ],
      "stateMutability": "view",
      "type": "function",
      "constant": true
    },
    {
      "inputs": [
        {
          "internalType": "string",
          "name": "_fileHash",
          "type": "string"
        },
        {
          "internalType": "uint256",
          "name": "_fileSize",
          "type": "uint256"
        },
        {
          "internalType": "string",
          "name": "_fileType",
          "type": "string"
        },
        {
          "internalType": "string",
          "name": "_fileName",
          "type": "string"
        },
        {
          "internalType": "string",
          "name": "_fileDescription",
          "type": "string"
        }
      ],
      "name": "uploadFile",
      "outputs": [],
      "stateMutability": "nonpayable",
      "type": "function"
    }
  ],
  "bytecode": "0x60806040526040518060400160405280600781526020017f44726f70626f78000000000000000000000000000000000000000000000000008152506001908051906020019062000051929190620000a6565b503480156200005f57600080fd5b50336000806101000a81548173ffffffffffffffffffffffffffffffffffffffff021916908373ffffffffffffffffffffffffffffffffffffffff160217905550620001ba565b828054620000b49062000185565b90600052602060002090601f016020900481019282620000d8576000855562000124565b82601f10620000f357805160ff191683800117855562000124565b8280016001018555821562000124579182015b828111156200012357825182559160200191906001019062000106565b5b50905062000133919062000137565b5090565b5b808211156200015257600081600090555060010162000138565b5090565b7f4e487b7100000000000000000000000000000000000000000000000000000000600052602260045260246000fd5b600060028204905060018216806200019e57607f821691505b602082108103620001b457620001b362000156565b5b50919050565b61108f80620001ca6000396000f3fe608060405234801561001057600080fd5b50600436106100575760003560e01c806306fdde031461005c578063439535191461007a5780638da5cb5b14610098578063e82d9d33146100b6578063f4c714b4146100d2575b600080fd5b610064610109565b60405161007191906108f2565b60405180910390f35b610082610197565b60405161008f919061092d565b60405180910390f35b6100a061019d565b6040516100ad9190610989565b60405180910390f35b6100d060048036038101906100cb9190610b19565b6101c1565b005b6100ec60048036038101906100e79190610c04565b61052e565b604051610100989796959493929190610c52565b60405180910390f35b6001805461011690610d1b565b80601f016020809104026020016040519081016040528092919081815260200182805461014290610d1b565b801561018f5780601f106101645761010080835404028352916020019161018f565b820191906000526020600020905b81548152906001019060200180831161017257829003601f168201915b505050505081565b60025481565b60008054906101000a900473ffffffffffffffffffffffffffffffffffffffff1681565b6001855111610205576040517f08c379a00000000000000000000000000000000000000000000000000000000081526004016101fc90610d98565b60405180910390fd5b6001835111610249576040517f08c379a000000000000000000000000000000000000000000000000000000000815260040161024090610e04565b60405180910390fd5b600182511161028d576040517f08c379a000000000000000000000000000000000000000000000000000000000815260040161028490610e70565b60405180910390fd5b60018151116102d1576040517f08c379a00000000000000000000000000000000000000000000000000000000081526004016102c890610edc565b60405180910390fd5b600073ffffffffffffffffffffffffffffffffffffffff163373ffffffffffffffffffffffffffffffffffffffff1603610340576040517f08c379a000000000000000000000000000000000000000000000000000000000815260040161033790610f48565b60405180910390fd5b60008411610383576040517f08c379a000000000000000000000000000000000000000000000000000000000815260040161037a90610fb4565b60405180910390fd5b6001600260008282546103969190611003565b9250508190555060405180610100016040528060025481526020018681526020018581526020018481526020018381526020018281526020014281526020013373ffffffffffffffffffffffffffffffffffffffff1681525060036000600254815260200190815260200160002060008201518160000155602082015181600101908051906020019061042a9291906107b6565b506040820151816002015560608201518160030190805190602001906104519291906107b6565b50608082015181600401908051906020019061046e9291906107b6565b5060a082015181600501908051906020019061048b9291906107b6565b5060c0820151816006015560e08201518160070160006101000a81548173ffffffffffffffffffffffffffffffffffffffff021916908373ffffffffffffffffffffffffffffffffffffffff1602179055509050507fccd294fa6415f3b3f94ac01881547f947b8fbb5e84ee31efd973f6c1cb510e9e6002548686868686423360405161051f989796959493929190610c52565b60405180910390a15050505050565b600360205280600052604060002060009150905080600001549080600101805461055790610d1b565b80601f016020809104026020016040519081016040528092919081815260200182805461058390610d1b565b80156105d05780601f106105a5576101008083540402835291602001916105d0565b820191906000526020600020905b8154815290600101906020018083116105b357829003601f168201915b5050505050908060020154908060030180546105eb90610d1b565b80601f016020809104026020016040519081016040528092919081815260200182805461061790610d1b565b80156106645780601f1061063957610100808354040283529160200191610664565b820191906000526020600020905b81548152906001019060200180831161064757829003601f168201915b50505050509080600401805461067990610d1b565b80601f01602080910402602001604051908101604052809291908181526020018280546106a590610d1b565b80156106f25780601f106106c7576101008083540402835291602001916106f2565b820191906000526020600020905b8154815290600101906020018083116106d557829003601f168201915b50505050509080600501805461070790610d1b565b80601f016020809104026020016040519081016040528092919081815260200182805461073390610d1b565b80156107805780601f1061075557610100808354040283529160200191610780565b820191906000526020600020905b81548152906001019060200180831161076357829003601f168201915b5050505050908060060154908060070160009054906101000a900473ffffffffffffffffffffffffffffffffffffffff16905088565b8280546107c290610d1b565b90600052602060002090601f0160209004810192826107e4576000855561082b565b82601f106107fd57805160ff191683800117855561082b565b8280016001018555821561082b579182015b8281111561082a57825182559160200191906001019061080f565b5b509050610838919061083c565b5090565b5b8082111561085557600081600090555060010161083d565b5090565b600081519050919050565b600082825260208201905092915050565b60005b83811015610893578082015181840152602081019050610878565b838111156108a2576000848401525b50505050565b6000601f19601f8301169050919050565b60006108c482610859565b6108ce8185610864565b93506108de818560208601610875565b6108e7816108a8565b840191505092915050565b6000602082019050818103600083015261090c81846108b9565b905092915050565b6000819050919050565b61092781610914565b82525050565b6000602082019050610942600083018461091e565b92915050565b600073ffffffffffffffffffffffffffffffffffffffff82169050919050565b600061097382610948565b9050919050565b61098381610968565b82525050565b600060208201905061099e600083018461097a565b92915050565b6000604051905090565b600080fd5b600080fd5b600080fd5b600080fd5b7f4e487b7100000000000000000000000000000000000000000000000000000000600052604160045260246000fd5b6109fa826108a8565b810181811067ffffffffffffffff82111715610a1957610a186109c2565b5b80604052505050565b6000610a2c6109a4565b9050610a3882826109f1565b919050565b600067ffffffffffffffff821115610a5857610a576109c2565b5b610a61826108a8565b9050602081019050919050565b82818337600083830152505050565b6000610a90610a8b84610a3d565b610a22565b905082815260208101848484011115610aac57610aab6109bd565b5b610ab7848285610a6e565b509392505050565b600082601f830112610ad457610ad36109b8565b5b8135610ae4848260208601610a7d565b91505092915050565b610af681610914565b8114610b0157600080fd5b50565b600081359050610b1381610aed565b92915050565b600080600080600060a08688031215610b3557610b346109ae565b5b600086013567ffffffffffffffff811115610b5357610b526109b3565b5b610b5f88828901610abf565b9550506020610b7088828901610b04565b945050604086013567ffffffffffffffff811115610b9157610b906109b3565b5b610b9d88828901610abf565b935050606086013567ffffffffffffffff811115610bbe57610bbd6109b3565b5b610bca88828901610abf565b925050608086013567ffffffffffffffff811115610beb57610bea6109b3565b5b610bf788828901610abf565b9150509295509295909350565b600060208284031215610c1a57610c196109ae565b5b6000610c2884828501610b04565b91505092915050565b6000610c3c82610948565b9050919050565b610c4c81610c31565b82525050565b600061010082019050610c68600083018b61091e565b8181036020830152610c7a818a6108b9565b9050610c89604083018961091e565b8181036060830152610c9b81886108b9565b90508181036080830152610caf81876108b9565b905081810360a0830152610cc381866108b9565b9050610cd260c083018561091e565b610cdf60e0830184610c43565b9998505050505050505050565b7f4e487b7100000000000000000000000000000000000000000000000000000000600052602260045260246000fd5b60006002820490506001821680610d3357607f821691505b602082108103610d4657610d45610cec565b5b50919050565b7f53686f756c642068617665206120636f72726563742068617368000000000000600082015250565b6000610d82601a83610864565b9150610d8d82610d4c565b602082019050919050565b60006020820190508181036000830152610db181610d75565b9050919050565b7f53686f756c642068617665207365742061207479706500000000000000000000600082015250565b6000610dee601683610864565b9150610df982610db8565b602082019050919050565b60006020820190508181036000830152610e1d81610de1565b9050919050565b7f53686f756c642068617665207365742061206e616d6500000000000000000000600082015250565b6000610e5a601683610864565b9150610e6582610e24565b602082019050919050565b60006020820190508181036000830152610e8981610e4d565b9050919050565b7f53686f756c642068617665207365742061206465736372697074696f6e000000600082015250565b6000610ec6601d83610864565b9150610ed182610e90565b602082019050919050565b60006020820190508181036000830152610ef581610eb9565b9050919050565b7f53686f756c64206861766520612076616c696420616464726573730000000000600082015250565b6000610f32601b83610864565b9150610f3d82610efc565b602082019050919050565b60006020820190508181036000830152610f6181610f25565b9050919050565b7f53686f756c64206861766520612066696c652073697a65203e20300000000000600082015250565b6000610f9e601b83610864565b9150610fa982610f68565b602082019050919050565b60006020820190508181036000830152610fcd81610f91565b9050919050565b7f4e487b7100000000000000000000000000000000000000000000000000000000600052601160045260246000fd5b600061100e82610914565b915061101983610914565b9250827fffffffffffffffffffffffffffffffffffffffffffffffffffffffffffffffff0382111561104e5761104d610fd4565b5b82820190509291505056fea26469706673582212203c4712a9614282c74f92aee833497fb6187b58c9437de12bda0a55fa8825a03e64736f6c634300080d0033",
  "immutableReferences": {},
  "source": "// SPDX-License-Identifier: MIT\npragma solidity >=0.4.22 <0.9.0;\n\ncontract Dropbox {\n  address public owner;\n  string public name = \"Dropbox\";\n  uint public fileCount;\n\n  struct File {\n    uint fileId;\n    string fileHash;\n    uint fileSize;\n    string fileType;\n    string fileName;\n    string fileDescription;\n    uint uploadTime;\n    address payable uploader;\n  }\n\n  mapping(uint => File) public files;\n\n  event UploadFile(\n    uint fileId,\n    string fileHash,\n    uint fileSize,\n    string fileType,\n    string fileName,\n    string fileDescription,\n    uint uploadTime,\n    address payable uploader\n  );\n\n  constructor() {\n    owner = msg.sender;\n  }\n\n  function uploadFile(\n    string memory _fileHash,\n    uint _fileSize,\n    string memory _fileType,\n    string memory _fileName,\n    string memory _fileDescription) public {\n    \n    require(bytes(_fileHash).length > 1, 'Should have a correct hash');  \n    require(bytes(_fileType).length > 1, 'Should have set a type');  \n    require(bytes(_fileName).length > 1, 'Should have set a name');  \n    require(bytes(_fileDescription).length > 1, 'Should have set a description');\n    require(msg.sender != address(0), \"Should have a valid address\");  \n    require(_fileSize > 0, \"Should have a file size > 0\");\n\n    fileCount += 1;\n    \n    files[fileCount] = File(\n      fileCount,\n      _fileHash,\n      _fileSize,\n      _fileType,\n      _fileName,\n      _fileDescription,\n      block.timestamp,\n      payable(msg.sender)\n    );\n  \n    emit UploadFile(\n      fileCount,\n      _fileHash,\n      _fileSize,\n      _fileType,\n      _fileName,\n      _fileDescription,\n      block.timestamp,\n      payable(msg.sender)\n    );\n\n  }\n}\n",
  "sourcePath": "/Users/danielancuta/Development/blockchain/truffle-react-dropbox-app/src/contracts/Dropbox.sol",
  "compiler": {
    "name": "solc",
    "version": "0.8.13+commit.abaa5c0e.Emscripten.clang"
  },
  "schemaVersion": "3.4.7",
  "updatedAt": "2022-05-03T17:44:32.153Z",
  "networkType": "ethereum",
  "devdoc": {
    "kind": "dev",
    "methods": {},
    "version": 1
  },
  "userdoc": {
    "kind": "user",
    "methods": {},
    "version": 1
  }
}